:020000040000FA
:0600000034EF04F01200D1
:020006000000F8
:08000800DACFE4FFE2CFDAFFDA
:10001000E9CFE4FFEACFE4FFF6CFE4FFF7CFE4FF58
:10002000F5CFE4FFF3CFE4FFF4CFE4FFFACFE4FF32
:1000300000EE03F0020EE80403E3EECFE4FFFBD78B
:1000400000EE00F0030EE80403E3EECFE4FFFBD77D
:10005000E65272EC00F0E55200EE02F0030EE80406
:1000600003E3E5CFEDFFFBD700EE04F0020EE8045A
:1000700003E3E5CFEDFFFBD7E5CFFAFFE5CFF4FFD4
:10008000E5CFF3FFE5CFF5FFE5CFF7FFE5CFF6FFCF
:0E009000E5CFEAFFE5CFE9FFE5CFDAFF11008B
:02009E00606A96
:1000A000626A140E616E080E646E02014D6B566B2F
:1000B000010E4E6F4F6964BAFED70F015F6B5B8F05
:1000C0005B895B875B855B835B81626A6082609C26
:1000D00060886084608A60806086A16AA084F28EF5
:1000E000F28C1200F6DA020EE126A16A62A203D0B7
:1000F0000F015F6B6FD062AC02D0629C6BD062A8C4
:1001000003D06298648266D062A403D06294649241
:1001100061D062AA02D0629A5DD062A023D00201AF
:100120004D6B62966296629662960F01536BDADAB5
:100130000201080E016F800E026F020E036F880E1F
:10014000006F880E066F020E076F080E046F0F0116
:100150005C6B626A160E536F5B690201010E566F8B
:100160004E6F38D062A636D07C0E6314016A000F41
:10017000006E020E012200C0DEFF01C0DDFFC1DA09
:10018000EFCF40F2BEDAEE52EFCF41F2BADA020E12
:10019000E926000EEA22EECF42F2EDCF43F263CF22
:1001A00055F2629602014C6B3C0E4015040A08E0C1
:1001B000200A04E0100A05E114D803D0DCD901D0EC
:1001C000F7D902014CA106D00201080E016F840E7E
:1001D000046F006F020EE15C02E2E16AE552E16E3B
:1001E0007DD277DAE652DF6A080EDF5C14E2DF5078
:1001F0000201EA6A4225E96E4351EA22EF50E66EB7
:10020000DF50EA6A440FE96E020EEA22E552E75037
:10021000EF6EDF2AE9D70201080E016F046F800E2E
:100220000201441504E14A5104E14B5102E1000E80
:1002300001D0010E000902E0C80E01D0880E0201B3
:10024000006F649802014F69600E4415400A08E08F
:10025000600A04E0200A06E108D805D057D903D087
:1002600059D901D04C81E55239D233DA050EE12655
:1002700002014551070A01E141D10B0A01E13ED1DA
:10028000070A01E12CD1010A01E11CD1030A01E1B5
:1002900009D1010A01E102D10E0A01E1A8D0030A45
:1002A00001E19CD0040A54E0020A52E0030A01E092
:1002B00025D11F0E4415020A18E0030A07E0010ABF
:1002C00001E01AD1F0D94EC2EFFF3BD05651030ADC
:1002D00004E0010A01E013D10FD1010E485D01E3F2
:1002E0000BD1E1D9EF6A2DD007D15651030A13E0A3
:1002F000010A01E001D10F0E481501E0FDD0800E8A
:10030000481503E00201045102D00201005103DA52
:10031000010E19D0F1D0CCD9800E481502E0010EA3
:1003200001D0000EABD9800E481502E0020E01D0BC
:10033000040E006E94D9001401E1DED0DBD9EF5039
:10034000EAD9010E0201BFD9EF6A020EC5D0D4D09E
:100350001F0E4415020A0DE0020A01E0CDD04651FD
:10036000010A01E0C9D0450502E14E91C0D04E819D
:10037000BED05651030A09E0010A01E0BDD00F0EBC
:10038000481501E0B9D0B3D0B7D092D9DB5023E003
:10039000800E481502E0010E01D0000E6FD948AF63
:1003A0000BD05DD9020B06E0450502E1000E0CD032
:1003B000840E0AD04C810FD052D9040B0BE04505B6
:1003C00002E1880E01D0840EE66E94D9E552E75022
:1003D000EF6E01D04C814CB192D089D046517F084C
:1003E00001E28AD0050E4F6F46C250F280D0060E51
:1003F0004F6F4751030A28E0010A10E0030A01E0A9
:100400007BD0C20E516F070E526F51C2F6FFF76ECE
:100410007DD942E153514A5D3FE23CD0465105E16E
:10042000D40E516F070E526F01D04C814CB167D082
:10043000020EF76A5125F66E5251F72267D92CE168
:1004400053514A5D29E226D04651030A12E0010ABF
:100450000CE0030A06E0010A11E1E60E516F070EF7
:100460000BD0EA0E516F070E07D01A0E516F080E0F
:1004700003D0360E516F080E526F01D04C814CB133
:100480003ED051C2F6FF52C2F7FF40D905E15351A9
:100490004A5D02E24AC253F2A0D831D004D94DC21B
:1004A000EFFF18D04651010827E30F011BD946C2C0
:1004B0004DF20201465102E1020E01D0030E566FC9
:1004C00016D01AD05651030A17E1010E485D14E206
:1004D000EAD8EF6A0201010E056F0BD00DD056511C
:1004E000030A0AE1010E485D07E2465105E10201F7
:1004F000056BC80E046F03D04C8101D04C81050EF2
:10050000E15C02E2E16AE552E16EE8D002014551A8
:100510004C81120002014551530A1EE0040A15E005
:10052000010A0EE0030A07E0010A23E146C28BFF3D
:1005300047C28AFF0ED046C294FF47C293FF09D03C
:1005400046518B1247518A1204D0461D8B16471D07
:100550008A160201056B0AD08250A5D8EF6E010EF3
:100560000201B1D881CFEFFF020E056FC80E046FF4
:1005700012004C811200180E02015515100A17E0E6
:10058000180A15E0080A01E012004F51060A0CE0B3
:10059000030A01E0120050C25CFF505102E1010E5B
:1005A00001D0020E566F1200EDEF02F012001200A1
:1005B000180E02015515100A0FE0180A0DE0080A7E
:1005C00001E012000201080E016F880E006F056B3A
:1005D000C80E046F1200120012007BD8E652080EFB
:1005E0000201535D05E24F6953C254F2536B03D0CD
:1005F000080E546F535FDF6A02015451DF5C12E250
:1006000051C2F6FF52C2F7FF512B000E52230800D1
:10061000F550E66EDF50020156D8E552E750EF6E16
:10062000DF2AEAD754C205F2400E02010419400B3A
:100630008809046FE55252D0806A816A826A7E6AB4
:100640007F6A766A6D6A6B6A926AF00E936E94683E
:1006500026DD030E0201565DFCE1FFD71200020EFB
:10066000DB50E76E000EDFCFE9FF010EDBCFEAFFC4
:10067000E750E926000EEA22EF501200026E020E49
:10068000DB50E8240210040DF3CF00F0F4CF01F0AA
:10069000000E0026020E0122030E00C0DBFF040E36
:1006A00001C0DBFF120006C2E9FF07C2EAFF120029
:1006B000530EDE6E0F0EDD6E0F0E4815E76E020E46
:1006C000E7CFDBFF1200EA6A0625E96E0751EA224E
:1006D0001200D9CFE6FFE1CFD9FF1200E552E7CFF4
:1006E000D9FF1200546B556B566B576B586B596B97
:1006F0005A6B1200030EDBCFE9FF040EDBCFEAFFDB
:100700001200DECFE9FFDDCFEAFF12000800F5CFCF
:1007100053F24B511200040BE840E8403F0BC3DF9B
:04072000EF6E120066
:0C072400060EF66E000EF76E000EF86E6A
:1007300002010900F5505E6F0900F5505F6F03E19B
:100740005E6701D03DD00900F550596F0900F550A2
:100750005A6F0900F5505B6F09000900F550E96E0A
:100760000900F550EA6E090009000900F5505C6FB8
:100770000900F5505D6F09000900F6CF60F2F7CF70
:1007800061F2F8CF62F259C2F6FF5AC2F7FF5BC2BC
:10079000F8FF02015C5302E15D5307E00900F550E8
:1007A000EE6E5C07F8E25D07F9D760C2F6FF61C242
:1007B000F7FF62C2F8FF02015E07000E5F5BBFD762
:0207C000120025
:0E07C20012010002FF000008D804C0F7070073
:1007D0000102030109021200010100A03209040014
:1007E0000000FF00FF00040309043003500065000F
:1007F00074006500720020004A0061006B00610017
:1008000062002C0020006A00610070002E00680069
:1008100075002F0065006C002F001C03470050007E
:1008200049004F00200065007800740065006E00EC
:1008300064006500720012033000310032003300A2
:080840003400350036003700DA
:08084800000EF36E00EE00F05B
:10085000030E01D81200EA6002D0EE6AFCD7F35012
:08086000E9601200EE6AFCD70A
:0808680011EE00F021EE00F09A
:10087000F86A049C92EC03F042EC04F01CEC03F0E8
:04088000FBD7120090
:02088400120060
:020000040030CA
:0100000000FF
:0100010032CC
:0100020000FD
:010003001EDE
:01000500807A
:0100060001F8
:0100080003F4
:01000900C036
:01000A0003F2
:01000B00E014
:01000C0003F0
:01000D0040B2
:00000001FF
